{
  "contractName": "Bet",
  "abi": [
    {
      "inputs": [],
      "name": "betAddress",
      "outputs": [
        {
          "internalType": "address",
          "name": "",
          "type": "address"
        }
      ],
      "stateMutability": "view",
      "type": "function"
    },
    {
      "inputs": [],
      "name": "betAmount",
      "outputs": [
        {
          "internalType": "uint256",
          "name": "",
          "type": "uint256"
        }
      ],
      "stateMutability": "view",
      "type": "function"
    },
    {
      "inputs": [
        {
          "internalType": "uint256",
          "name": "",
          "type": "uint256"
        }
      ],
      "name": "bets",
      "outputs": [
        {
          "internalType": "address",
          "name": "bettor",
          "type": "address"
        },
        {
          "internalType": "uint256",
          "name": "amount",
          "type": "uint256"
        },
        {
          "internalType": "uint256",
          "name": "time",
          "type": "uint256"
        }
      ],
      "stateMutability": "view",
      "type": "function"
    },
    {
      "inputs": [],
      "name": "endTime",
      "outputs": [
        {
          "internalType": "uint256",
          "name": "",
          "type": "uint256"
        }
      ],
      "stateMutability": "view",
      "type": "function"
    },
    {
      "inputs": [],
      "name": "isBet",
      "outputs": [
        {
          "internalType": "bool",
          "name": "",
          "type": "bool"
        }
      ],
      "stateMutability": "view",
      "type": "function"
    },
    {
      "inputs": [
        {
          "internalType": "bool",
          "name": "_isBet",
          "type": "bool"
        },
        {
          "internalType": "uint256",
          "name": "_betAmount",
          "type": "uint256"
        }
      ],
      "name": "publishPost",
      "outputs": [],
      "stateMutability": "nonpayable",
      "type": "function"
    },
    {
      "inputs": [],
      "name": "participate",
      "outputs": [],
      "stateMutability": "payable",
      "type": "function"
    },
    {
      "inputs": [],
      "name": "endBet",
      "outputs": [],
      "stateMutability": "nonpayable",
      "type": "function"
    },
    {
      "inputs": [],
      "name": "getBetInfo",
      "outputs": [
        {
          "components": [
            {
              "internalType": "address",
              "name": "bettor",
              "type": "address"
            },
            {
              "internalType": "uint256",
              "name": "amount",
              "type": "uint256"
            },
            {
              "internalType": "uint256",
              "name": "time",
              "type": "uint256"
            }
          ],
          "internalType": "struct Bet.BetInfo[]",
          "name": "",
          "type": "tuple[]"
        }
      ],
      "stateMutability": "view",
      "type": "function"
    }
  ],
  "bytecode": "0x608060405234801561000f575f80fd5b50610c4d8061001d5f395ff3fe608060405260043610610085575f3560e01c80639843901e116100585780639843901e146101455780639ada30ac1461016d578063cfe7b77014610183578063d11711a2146101ad578063d24257c0146101b757610085565b806322af00fa146100895780633197cbb6146100c757806335e2e1b2146100f1578063851789571461011b575b5f80fd5b348015610094575f80fd5b506100af60048036038101906100aa919061070a565b6101e1565b6040516100be93929190610783565b60405180910390f35b3480156100d2575f80fd5b506100db610234565b6040516100e891906107b8565b60405180910390f35b3480156100fc575f80fd5b5061010561023a565b60405161011291906107eb565b60405180910390f35b348015610126575f80fd5b5061012f61024c565b60405161013c9190610804565b60405180910390f35b348015610150575f80fd5b5061016b60048036038101906101669190610847565b610271565b005b348015610178575f80fd5b506101816102fa565b005b34801561018e575f80fd5b506101976104bd565b6040516101a4919061098b565b60405180910390f35b6101b5610580565b005b3480156101c2575f80fd5b506101cb6106cd565b6040516101d891906107b8565b60405180910390f35b5f81815481106101ef575f80fd5b905f5260205f2090600302015f91509050805f015f9054906101000a900473ffffffffffffffffffffffffffffffffffffffff16908060010154908060020154905083565b60045481565b60015f9054906101000a900460ff1681565b60035f9054906101000a900473ffffffffffffffffffffffffffffffffffffffff1681565b81156102dc576001805f6101000a81548160ff021916908315150217905550806002819055503360035f6101000a81548173ffffffffffffffffffffffffffffffffffffffff021916908373ffffffffffffffffffffffffffffffffffffffff1602179055506102f6565b5f60015f6101000a81548160ff0219169083151502179055505b5050565b6001151560015f9054906101000a900460ff1615151461034f576040517f08c379a000000000000000000000000000000000000000000000000000000000815260040161034690610a05565b60405180910390fd5b600454421015610394576040517f08c379a000000000000000000000000000000000000000000000000000000000815260040161038b90610a93565b60405180910390fd5b5f4790505f808054905090505f81836103ad9190610b0b565b90505f5b82811015610450575f81815481106103cc576103cb610b3b565b5b905f5260205f2090600302015f015f9054906101000a900473ffffffffffffffffffffffffffffffffffffffff1673ffffffffffffffffffffffffffffffffffffffff166108fc8390811502906040515f60405180830381858888f1935050505015801561043c573d5f803e3d5ffd5b50808061044890610b68565b9150506103b1565b505f60015f6101000a81548160ff0219169083151502179055505f6002819055505f60035f6101000a81548173ffffffffffffffffffffffffffffffffffffffff021916908373ffffffffffffffffffffffffffffffffffffffff1602179055505f600481905550505050565b60605f805480602002602001604051908101604052809291908181526020015f905b82821015610577578382905f5260205f2090600302016040518060600160405290815f82015f9054906101000a900473ffffffffffffffffffffffffffffffffffffffff1673ffffffffffffffffffffffffffffffffffffffff1673ffffffffffffffffffffffffffffffffffffffff16815260200160018201548152602001600282015481525050815260200190600101906104df565b50505050905090565b6001151560015f9054906101000a900460ff161515146105d5576040517f08c379a00000000000000000000000000000000000000000000000000000000081526004016105cc90610a05565b60405180910390fd5b6002543414610619576040517f08c379a000000000000000000000000000000000000000000000000000000000815260040161061090610bf9565b60405180910390fd5b5f60405180606001604052803373ffffffffffffffffffffffffffffffffffffffff16815260200134815260200142815250908060018154018082558091505060019003905f5260205f2090600302015f909190919091505f820151815f015f6101000a81548173ffffffffffffffffffffffffffffffffffffffff021916908373ffffffffffffffffffffffffffffffffffffffff16021790555060208201518160010155604082015181600201555050565b60025481565b5f80fd5b5f819050919050565b6106e9816106d7565b81146106f3575f80fd5b50565b5f81359050610704816106e0565b92915050565b5f6020828403121561071f5761071e6106d3565b5b5f61072c848285016106f6565b91505092915050565b5f73ffffffffffffffffffffffffffffffffffffffff82169050919050565b5f61075e82610735565b9050919050565b61076e81610754565b82525050565b61077d816106d7565b82525050565b5f6060820190506107965f830186610765565b6107a36020830185610774565b6107b06040830184610774565b949350505050565b5f6020820190506107cb5f830184610774565b92915050565b5f8115159050919050565b6107e5816107d1565b82525050565b5f6020820190506107fe5f8301846107dc565b92915050565b5f6020820190506108175f830184610765565b92915050565b610826816107d1565b8114610830575f80fd5b50565b5f813590506108418161081d565b92915050565b5f806040838503121561085d5761085c6106d3565b5b5f61086a85828601610833565b925050602061087b858286016106f6565b9150509250929050565b5f81519050919050565b5f82825260208201905092915050565b5f819050602082019050919050565b6108b781610754565b82525050565b6108c6816106d7565b82525050565b606082015f8201516108e05f8501826108ae565b5060208201516108f360208501826108bd565b50604082015161090660408501826108bd565b50505050565b5f61091783836108cc565b60608301905092915050565b5f602082019050919050565b5f61093982610885565b610943818561088f565b935061094e8361089f565b805f5b8381101561097e578151610965888261090c565b975061097083610923565b925050600181019050610951565b5085935050505092915050565b5f6020820190508181035f8301526109a3818461092f565b905092915050565b5f82825260208201905092915050565b7f5468697320706f7374206973206e6f7420666f722062657474696e672e0000005f82015250565b5f6109ef601d836109ab565b91506109fa826109bb565b602082019050919050565b5f6020820190508181035f830152610a1c816109e3565b9050919050565b7f5468652062657474696e672074696d6520686173206e6f7420656e64656420795f8201527f65742e0000000000000000000000000000000000000000000000000000000000602082015250565b5f610a7d6023836109ab565b9150610a8882610a23565b604082019050919050565b5f6020820190508181035f830152610aaa81610a71565b9050919050565b7f4e487b71000000000000000000000000000000000000000000000000000000005f52601260045260245ffd5b7f4e487b71000000000000000000000000000000000000000000000000000000005f52601160045260245ffd5b5f610b15826106d7565b9150610b20836106d7565b925082610b3057610b2f610ab1565b5b828204905092915050565b7f4e487b71000000000000000000000000000000000000000000000000000000005f52603260045260245ffd5b5f610b72826106d7565b91507fffffffffffffffffffffffffffffffffffffffffffffffffffffffffffffffff8203610ba457610ba3610ade565b5b600182019050919050565b7f5468652062657420616d6f756e74206973206e6f7420636f72726563742e00005f82015250565b5f610be3601e836109ab565b9150610bee82610baf565b602082019050919050565b5f6020820190508181035f830152610c1081610bd7565b905091905056fea264697066735822122019c329966d373ee9940385cc7b6f1006255ef2caed2d2288de1d8ede882012c064736f6c63430008140033",
  "immutableReferences": {},
  "source": "// SPDX-License-Identifier: MIT\npragma solidity ^0.8.17;\n\ncontract Bet {\n    struct BetInfo {\n        address bettor;\n        uint256 amount;\n        uint256 time;\n    }\n\n    BetInfo[] public bets;\n    bool public isBet;\n    uint256 public betAmount;\n    address public betAddress;\n    uint256 public endTime;\n\n    function publishPost(bool _isBet, uint256 _betAmount) public {\n        // , \n        if (_isBet) {\n            // token\n            // ...\n            isBet = true;\n            betAmount = _betAmount;\n            betAddress = msg.sender;\n        } else {\n            isBet = false;\n        }\n    }\n\n    function participate() public payable {\n        // \n        require(isBet == true, \"This post is not for betting.\");\n        require(msg.value == betAmount, \"The bet amount is not correct.\");\n        bets.push(BetInfo({\n            bettor: msg.sender,\n            amount: msg.value,\n            time: block.timestamp\n        }));\n    }\n\n    function endBet() public {\n        // \n        require(isBet == true, \"This post is not for betting.\");\n        require(block.timestamp >= endTime, \"The betting time has not ended yet.\");\n        uint256 totalAmount = address(this).balance;\n        uint256 bettorCount = bets.length;\n        uint256 bettorShare = totalAmount / bettorCount;\n        for (uint256 i = 0; i < bettorCount; i++) {\n            payable(bets[i].bettor).transfer(bettorShare);\n        }\n        isBet = false;\n        betAmount = 0;\n        betAddress = address(0);\n        endTime = 0;\n    }\n\n    function getBetInfo() public view returns (BetInfo[] memory) {\n        // \n        return bets;\n    }\n}\n",
  "sourcePath": "/root/Desktop/github/jokereven/flare/flare_contract/contracts/Flare.sol",
  "compiler": {
    "name": "solc",
    "version": "0.8.20+commit.a1b79de6.Emscripten.clang"
  },
  "schemaVersion": "3.4.14",
  "updatedAt": "2023-05-28T07:31:36.527Z",
  "devdoc": {
    "kind": "dev",
    "methods": {},
    "version": 1
  },
  "userdoc": {
    "kind": "user",
    "methods": {},
    "version": 1
  }
}